:0200000098283E
:0E0006008312031321088A00200882000800DC
:1000140083120313FD01F8017008031900347406F8
:10002400FA00FA1BFD09FB01F41F1A28F409F40A6B
:10003400F01F1E28F009F00A70087404FA00FA1B75
:1000440042287408F802F00D700DF80D7408F807D2
:10005400F00D0630FC00700DF80D74087018F802ED
:10006400701CF807F00DFC0B2D28701CF8077B188A
:100074005028FD1F0034F009F00AF809F80A00348A
:10008400F41F4D28F01B4A287008F800F0013B28A3
:10009400F001F00A0034F009FB0A2328F80A740876
:1000A4007802031D3B28F801F00AF01F3B28FF34B7
:0200B400080042
:1000B6000A3083120313F4002408F0000A207008A3
:1000C600A5000A30F4002408F0000A207808F000A1
:1000D6000710071187158714700886003430FC0056
:1000E600F130FD00FD0B7528FC0B752800000000A3
:1000F6000714071587118710250886003430FC0081
:10010600F130FD00FD0B8528FC0B85280000000062
:020116000800DF
:1001180003208A110A128000840AA00A0319A10A7E
:08012800F003031D8C28080000
:100130000630831603139F00860183128601C030A8
:10014000831688008312081788178812881AAA282D
:100150000812AB280816081AAF288811B02888158D
:100160008819B4280811B52808150819B928881065
:10017000BA2888148818BE280810BF2808148316C7
:1001800087018312071487140715871505160716AC
:100190008716051ECC28C928081F28298801173072
:1001A000A20080302206F0008030003A7002031C6A
:1001B000FA2808148816081BE02808108812FA2864
:1001C0008030033AF000803022067002031CEE28D3
:1001D00088120816081BEE280812FA28A301193005
:1001E00023020318F8282208A4005B20A30AEF28A2
:1001F000A203D1280F30A20080302206F000803008
:10020000003A7002031C27290810081288150815E7
:10021000081B0D298811081127298030033AF000A6
:10022000803022067002031C1B2908118814081B49
:100230001B2988102729A301193023020318252917
:100240002208A4005B20A30A1C29A203FC28CC28B6
:10025000081B8C2901308700081F302988018C2950
:10026000881F3329302988148815081F39298801E7
:100270008C29081C4629881E462988128810881156
:1002800008140816081F462988018C29081C5F29B4
:10029000081E5F291F30FB007130FC001E30FD007E
:1002A000FD0B5029FC0B5029FB0B502900000810B6
:1002B000081208158815081F5F2988018C29881FD6
:1002C00062295F29081D6C29881D6C290811881472
:1002D000081F6C2988018C29881F6F296C29881CAC
:1002E0008829881D88291F30FB007130FC001E30D2
:1002F000FD00FD0B7929FC0B7929FB0B7929000006
:100300008810881108148816081F882988018C29EC
:0C031000881F8B2988292829CC288D29DA
:02400E004A2F37
:00000001FF
